:100000000C94F3050C941B060C941B060C941B0615
:100010000C941B060C941B060C941B060C941B06DC
:100020000C941B060C941B060C9454080C94C608E4
:100030000C941B060C941B060C941B060C941B06BC
:100040000C941B060C941B060C941B060C941B06AC
:100050000C941B060C941B060C941B060C94B50BFD
:100060000C941B060C941B060C941B060C941B068C
:100070000C941B060C941B060C941B060C941B067C
:100080000C94FF0B0C941B060C941B060C941B0683
:100090000C941B060C941B060C941B060C941B065C
:1000A0000C941B060C941B060C941B06F0F89C8EFB
:1000B0008783878E9CF8F00000FEFF030303030391
:1000C000070EFCF80000FEFF0303030303070EFC0A
:1000D000F80000FFFF00000000000000FFFF00002C
:1000E000FEFF8383838383C7EE7C380000F8FC0E19
:1000F00007030303070EFCF800003F7FE0C0808089
:10010000C0E07F3FFFFF01010101010101FFFF008E
:1001100000FFFF0C0C0C0C1C3E77E3C100007FFFBE
:10012000C0C0C0C0C0E0703F1F00001F3F70E0C0F3
:10013000C0C0E0703F1F00007FFFC1C1C1C1C1E36B
:10014000773E1C00001F3F70E0C0C0C0E0703F1F42
:10015000000000000001FFFF01000000D5F08D1439
:10016000A1C881CFD9F1AF2000804000000000007D
:10017000000000000000000000000000000000007F
:10018000000000000000000000000000000000006F
:10019000000000000000000000000000000000005F
:1001A0000000000080C0E0E07030381858E0F0F047
:1001B000F8F8F8F0F0E08000000000000000000017
:1001C000000000000000000000000000000000002F
:1001D000000000000000000000000000000000001F
:1001E000000000000000000000000000000000000F
:1001F00000000000000000000000000000000000FF
:1002000000000000000000000000000000000000EE
:10021000000000000000000000000000000000E0FE
:10022000F8FEFFFFFF0701000000000000000001D2
:10023000071FFFFFFFFFFFFFFE7800000000000028
:1002400000000000000000000000000000000000AE
:10025000000000000000000000000000000000009E
:10026000000000000000000000000000000000008E
:10027000000000000000000000000000000000007E
:10028000000000000000000000000000000000006E
:100290000000000000000000000000000000000F4F
:1002A0003FFFFFFFFFFEF8F0F0E0E0E0E0C0E0E03D
:1002B000E0F07F3F1F1F0F0701000000000000005B
:1002C000000000000000000000000000000000002E
:1002D000000000000000000000000000000000001E
:1002E000000000000000000000000000000000000E
:1002F00000000000000000000000000000000000FE
:1003000000000000000000000000000000000000ED
:1003100000000000000000000000000000000000DD
:1003200000000103030707070F0F07070703030177
:1003300001000000000000000000000000000000BC
:1003400000000000000000000000000000000000AD
:10035000000000000000000000000000000000009D
:100360000000000000000000000000FCFCFCFCFCA1
:10037000FCFCFCFCFCFCFCFCFCFCFCFCFCFCFCFCBD
:10038000FCFCFCFCFCFCFCFCFCFCFCFCFCFCFCFCAD
:10039000FCFCFCFCFCFCFCFCFCFCFCFCFCFCFCFC9D
:1003A000FC7C3C3C3C7CFCFCFCFCFCFCFCFCFCFCCD
:1003B000FCFCFCFCFCFC7C3C1C0CDCFCFCFCFCFCAD
:1003C000FCFCFCFCFCFCFCFCFCFCFCFCFCFCFCFC6D
:1003D000FCFCFCFCFCFCFCFCFCFCFCFCFCFCFCFC5D
:1003E000FCFCFCFCFCFCFCFCFCFCFCFF3FFFFFFFFE
:1003F000FFFFFFFFFFFFFFFFFFFFFFFFFFFFFFFF0D
:10040000FFFFFFFFFFFFFFFFFFFFFFFFFFFFFFFFFC
:10041000FFFFFFFFFFFFFFFFFFFFFFFFFFFFFFFFEC
:10042000F8F8F0E0C08080000103070F1F3F1F1F96
:100430000F07030381C0E0F0F8FCFFFFFFFFFFFFA1
:10044000FFFFFFFFFFFFFFFFFFFFFFFFFFFFFFFFBC
:10045000FFFFFFFFFFFFFFFFFFFFFFFFFFFFFFFFAC
:10046000FFFFFFFFFFFFFFFFFFFFFFFF707676F943
:10047000FFD8D7D7E0FFFFFFFFFFFFFFFFFFFFFF22
:10048000FFFFFFFFFFFFFFFFFFFFFFFFFFFFFFFF7C
:10049000FFFFFFFFFFFFFFFFFFFFFFFFFFFFFFFF6C
:1004A000FFFFFF7F7F3F1F0F06000080C0C08080DE
:1004B00000000207070F1F3F3F7FFFFFFFFFFFFF07
:1004C000FFFFFFFFFFFFFFFFFFFFFFFFFFFFFFFF3C
:1004D000FFFFFFFFFFFFFFFFFFFFFFFFFFFFFFFF2C
:1004E000FFFFFFFFFFFFFFFFFFFFFFFFE0FBFBE45E
:1004F000FFB1AFAFC1FFF3EDEDE1EFFDE1FBFDE3D8
:10050000FFFFFFFFFFFFFFFFFFFFFFFFFFFFFFFFFB
:10051000FFFFFFFFFFFFFFFFFFFFFFFFFFFFFFFFEB
:10052000430180C0E0F0F8FCFEFFFFFFFFFFFFFF8C
:10053000FFFEFCFCF8F0E0E0E0E0F0FDFFFFFFFF75
:10054000FFFFFFFFFFFFFFFFFFFFFFFFFFFFFFFFBB
:10055000FFFFFFFFFFFFFFFFFFFFFFFFFFFFFFFFAB
:10056000FFFFFFFFFFFFFFFFFFFFFF1010E0F8FCA2
:10057000FE3E1F0F0F0F0F1F3EFEFCF8E0071F3F50
:100580007F7CF8F0F0F0F0F87C7F3F1F071010043C
:100590000E1F3E7CF8F0E0E0F0F87C3E1F0E0420D9
:1005A00070F87C3E1F0F07070F1F3E7CF8702083FA
:1005B000006400B8011900EE012800B8010F000026
:1005C00080E402F20100009000E4022200000048F2
:1005D00000E402220000004800E402B10000006CC8
:1005E00000E402690000002400E402460000004824
:1005F000003F03690000002400A4036900000024F8
:1006000000DC030A040000FB00DC03690000002496
:10061000005504460000004800DD04460000004884
:100620000075055D020000240075052200000048E9
:10063000007505220000004800750522000000B387
:10064000005504B100000024007505460000004874
:1006500000C8057500000018007D06690000002430
:1006600000C8056906008000000000003E5B4F5B8B
:100670003E3E6B4F6B3E1C3E7C3E1C183C7E3C1845
:100680001C577D571C1C5E7F5E1C00183C1800FF29
:10069000E7C3E7FF0018241800FFE7DBE7FF304857
:1006A0003A060E2629792926407F050507407F0551
:1006B000253F5A3CE73C5A7F3E1C1C08081C1C3E48
:1006C0007F14227F22145F5F005F5F06097F017F36
:1006D000006689956A606060606094A2FFA29408D9
:1006E000047E040810207E201008082A1C08081C1C
:1006F0002A08081E101010100C1E0C1E0C30383E5C
:100700003830060E3E0E06000000000000005F00BC
:10071000000007000700147F147F14242A7F2A1288
:10072000231308646236495620500008070300006E
:100730001C2241000041221C002A1C7F1C2A0808A0
:100740003E080800807030000808080808000060B3
:10075000600020100804023E5149453E00427F409F
:100760000072494949462141494D331814127F10FE
:1007700027454545393C4A49493141211109073648
:1007800049494936464949291E00001400000040E5
:1007900034000000081422411414141414004122DF
:1007A000140802015909063E415D594E7C1211128E
:1007B0007C7F494949363E414141227F4141413E8A
:1007C0007F494949417F090909013E414151737FF0
:1007D0000808087F00417F41002040413F017F0819
:1007E0001422417F404040407F021C027F7F04086A
:1007F000107F3E4141413E7F090909063E4151219A
:100800005E7F09192946264949493203017F0103C0
:100810003F4040403F1F2040201F3F4038403F6343
:100820001408146303047804036159494D43007F9D
:100830004141410204081020004141417F0402016E
:100840000204404040404000030708002054547810
:10085000407F284444383844444428384444287F5E
:10086000385454541800087E090218A4A49C787FB8
:100870000804047800447D40002040403D007F1083
:1008800028440000417F40007C047804787C080400
:1008900004783844444438FC1824241818242418B4
:1008A000FC7C08040408485454542404043F4424A1
:1008B0003C4040207C1C2040201C3C4030403C44BC
:1008C000281028444C9090907C4464544C44000878
:1008D00036410000007700000041360800020102A6
:1008E00004023C2623263C1EA1A161123A4040206E
:1008F0007A385454555921555579412154547841E9
:10090000215554784020545579400C1E52721239AA
:100910005555555939545454593955545458000063
:10092000457C410002457D420001457C40F0292480
:1009300029F0F0282528F07C545545002054547C9B
:10094000547C0A097F493249494932324848483281
:10095000324A4848303A4141217A3A4240207800B0
:100960009DA0A07D39444444393D4040403D3C2455
:10097000FF2424487E4943662B2FFC2F2BFF092997
:10098000F620C0887E090320545479410000447D3C
:10099000413048484A32384040227A007A0A0A7286
:1009A0007D0D19317D2629292F2826292929263030
:1009B000484D4020380808080808080808382F1053
:1009C000C8ACBA2F102834FA00007B000008142AA3
:1009D000142222142A14089500220095AA0055001A
:1009E000AAAA55AA55AA000000FF00101010FF0087
:1009F000141414FF001010FF00FF1010F010F0147A
:100A00001414FC001414F700FF0000FF00FF14147E
:100A1000F404FC141417101F10101F101F141414CA
:100A20001F00101010F0000000001F101010101F09
:100A300010101010F010000000FF10101010101017
:100A4000101010FF10000000FF140000FF00FF0056
:100A5000001F10170000FC04F414141710171414CE
:100A6000F404F40000FF00F714141414141414F721
:100A700000F7141414171410101F101F141414F47A
:100A8000141010F010F000001F101F0000001F14C1
:100A9000000000FC140000F010F01010FF10FF1414
:100AA0001414FF141010101F00000000F010FFFFBE
:100AB000FFFFFFF0F0F0F0F0FFFFFF00000000008C
:100AC000FFFF0F0F0F0F0F38444438447C2A2A3E93
:100AD000147E02020606027E027E026355494163CD
:100AE0003844443C04407E201E2006027E020299C7
:100AF000A5E7A5991C2A492A1C4C7201724C304A60
:100B00004D4D303048784830BC625A463D3E4949E8
:100B100049007E0101017E2A2A2A2A2A44445F4490
:100B20004440514A444040444A51400000FF0103C0
:100B3000E080FF000008086B6B083612362436068A
:100B40000F090F06000018180000001010003040B8
:100B5000FF0101001F01011E00191D1712003C3C7E
:100B60003C3C000000000001020408102040800806
:100B70000B00020202010009040000010202000051
:100B800005240010010524010101042402060524A6
:100B90000600010705810310004009040100020A54
:100BA0000000000705020240000007058302400024
:100BB000000403090412010002EF02014041233640
:100BC0008000010102030141726475696E6F204C5F
:100BD0004C430041726475696E6F204C656F6E61A5
:100BE00072646F00431811241FBECFEFDAE0DEBF3E
:100BF000CDBF11E0A0E0B1E0E4EDF2E302C005906A
:100C00000D92A438B107D9F726E0A4E8B1E001C0FD
:100C10001D92AC33B207E1F715E0C3EFD5E004C095
:100C20002197FE010E945D19C23FD107C9F70E94BA
:100C30000E110C9468190C9400004091AD01509174
:100C4000AE012091AB013091AC0142175307B4F4CF
:100C50009091E8009570E1F39091E80092FD19C041
:100C60008093F1008091AD019091AE0101968F7358
:100C70009927892B19F48EEF8093E8008091AD01BC
:100C80009091AE0101969093AE018093AD0181E009
:100C9000089580E00895DF92EF92FF920F931F93E3
:100CA000CF93DF93D82E8A017B01E40EF51EEB0172
:100CB000CE15DF0571F0D7FE03C0FE01849101C09F
:100CC00088810E941D0621968111F2CF8FEF9FEF40
:100CD00001C0C801DF91CF911F910F91FF90EF905C
:100CE000DF900895615030F02091F100FC012083E5
:100CF0000196F8CF289884E68093B0010895CF92AA
:100D0000DF92EF92FF920F931F93CF93DF936C01CB
:100D10007A018B01C0E0D0E0CE15DF0589F0D80163
:100D20006D918D01D601ED91FC910190F081E02D46
:100D3000C6010995892B11F47E0102C02196ECCFE2
:100D4000C701DF91CF911F910F91FF90EF90DF903E
:100D5000CF900895CF93DF931F92CDB7DEB769830D
:100D6000DC01ED91FC910280F381E02D41E050E047
:100D7000BE016F5F7F4F09950F90DF91CF9108956E
:100D800083E08093E9008091F200882319F08AE3E0
:100D90008093E8000895FC018485958597FD0BC03C
:100DA0009FB7F89482E08093E9008091F2009FBFA2
:100DB00090E0019608959FB7F89482E08093E9004F
:100DC0008091F2009FBF90E008953FB7F894809122
:100DD000A7019091A801A091A901B091AA0126B5FF
:100DE000A89B05C02F3F19F00196A11DB11D3FBF63
:100DF000BA2FA92F982F8827820F911DA11DB11DF1
:100E0000BC01CD0142E0660F771F881F991F4A95EC
:100E1000D1F7089580919B01E0919901F0919A0199
:100E2000882349F0CF01029690939A01809399010B
:100E3000859194910895CF01029690939A018093A1
:100E40009901808191810895CF92DF92EF92FF9274
:100E50000F931F93CF93DF930E940A07811520E819
:100E6000920761F4809171008D7F809371001092E0
:100E7000910046984798109298018BC021E02093EA
:100E80009801813020E8920751F480919601909169
:100E9000970190939A01809399010E940A0797FD08
:100EA00005C020919501222309F43FC020919401AF
:100EB00021113BC021E020939C01EC01DF772097BA
:100EC00069F481E080939D0146983FE9C32E3FE09D
:100ED000D32EE12CF12CCAEFD0E014C08E0120E01B
:100EE00030E060E472E48FE090E0A90198010E9494
:100EF000FA1869017A0181E0C81AD108E108F108FD
:100F000010929D01E091B205F091B3050995811110
:100F100003C081E080939D0180919C018823B9F1F9
:100F200080919D01811133C003C010929C01C5CFF7
:100F300046992DC0479A0E940A07009771F09C01BC
:100F4000DE010E944E19DC01CB0129E0B595A79581
:100F5000979587952A95D1F703C08FEF9FEFDC0116
:100F6000109290002AE020939100D0929900C092B4
:100F7000980080939E0190939F01A093A001B0934D
:100F8000A1018091710082608093710002C0479836
:100F9000D2CFDF91CF911F910F91FF90EF90DF9013
:100FA000CF9008958091870108950895089580E075
:100FB00090E008950E9463190F931F93CF93DF93DE
:100FC0001F92CDB7DEB782E0898342E450E06FE63E
:100FD0007BE080E80E944B060E94FA10DC0112962A
:100FE0000D911C9113970115110569F0D801ED9130
:100FF000FC910280F381E02DBE016F5F7F4FC8013D
:10100000099597FF07C089810F90DF91CF911F91BC
:101010000F910895F80100851185E5CF0E94E91030
:1010200090E00895CF93DF931F92CDB7DEB7FC0118
:101030008485958597FD05C02FEF3FEF3587248781
:101040000BC0CE0101960E94BF10019719F489814F
:1010500090E002C08FEF9FEF0F90DF91CF91089546
:101060000F931F93CF93DF931F92CDB7DEB78C0101
:10107000FC018485958597FF0EC0CE0101960E94E4
:10108000BF10019719F4298130E002C02FEF3FEF24
:10109000F80135872487F801848595850F90DF91C5
:1010A000CF911F910F9108951F920F920FB60F923B
:1010B00011248F939F938091E1009091E100937FA1
:1010C0009093E10083FF0FC01092E90091E09093AC
:1010D000EB001092EC0092E39093ED001092B101BE
:1010E00098E09093F00082FF20C093E09093E90095
:1010F0009091F200992319F09AE39093E80090916F
:10110000AF01992339F09091AF0191509093AF01C5
:10111000992389F19091B001992339F09091B00110
:1011200091509093B001992341F184FF10C08091B8
:10113000E2008E7E81608093E2008091E1008F7EEC
:101140008093E100809185018E7E806111C080FFD7
:1011500016C08091E2008E7E80618093E2008091D3
:10116000E1008E7E8093E100809185018E7E81601A
:101170008093850104C05D9ACDCF289AD6CF9F91E8
:101180008F910F900FBE0F901F9018951F920F9286
:101190000FB60F921124CF92DF92EF92FF920F932E
:1011A0001F932F933F934F935F936F937F938F93EF
:1011B0009F93AF93BF93EF93FF93CF93DF93CDB7FD
:1011C000DEB76C97DEBFCDBF1092E9008091E800DA
:1011D00083FFEDC168E0CE0145960E94720682EF62
:1011E0008093E8008D8987FF05C09091E80090FF0B
:1011F000FCCF03C09EEF9093E800982F907609F003
:10120000C6C09E892F89188D91110CC0803829F491
:10121000809186018093F10002C01092F10010923B
:10122000F10048C1422F50E0512B913051F481110F
:1012300041C14130510509F03DC1809186018D7F4A
:101240000BC0933061F4811135C14130510509F073
:1012500031C1809186018260809386012BC19530D7
:1012600041F48091E80080FFFCCF20682093E300E8
:1012700021C1963009F05FC0EB8CFC8C1092E90024
:101280001092AE011092AD01123091F51092AC01A6
:101290001092AB010E94DC0799E0BE016F5F7F4FA7
:1012A000DB01E92F1D92EA95E9F799831A8391E012
:1012B0009E8390EA98879AEF99872091AD013091AB
:1012C000AE01275F3F4F3C832B838D831092E90053
:1012D0001092AE011092AD01F092AC01E092AB0120
:1012E00049E050E080E00E944B060E94DC07E2C02B
:1012F000F092AC01E092AB010E94FA10DC01129670
:10130000ED90FC901397E114F10409F4C0C0D701EB
:10131000ED91FC910480F581E02DBE016B5E7F4F65
:10132000C7010995009719F00CF0C4C0C7C0F701B8
:10133000E084F184E8CF973009F4C0C0983021F4FC
:1013400081E08093F100B6C0993009F0B3C083709A
:1013500009F0B4C0E6E1F1E081E021E036E39081FC
:10136000992361F08093E9002093EB009191909391
:10137000EC003093ED008F5F873089F78EE7809324
:10138000EA001092EA008F898093B10193C08B8D9F
:101390009C8D1092E9001092AE011092AD019093D5
:1013A000AC018093AB01898D811156C08E899D89D6
:1013B000913A59F4813209F081C047E050E069E088
:1013C00071E080E00E944B0675C0913209F076C052
:1013D000833289F4888D90E0982F88272F89822B7B
:1013E000A0E0B0E08093050190930601A09307016F
:1013F000B09308015FC0803269F48091E80082FFF9
:10140000FCCF67E089E091E00E9472068BEF809349
:10141000E80006C0823209F04DC08F898093100128
:1014200080918401882319F0EEEFFAE002C0E0E039
:10143000F8E08091090190910A01A0910B01B0910F
:101440000C01803B9440A105B10509F07BC080915F
:10145000100180FF93C076C00E94FA10DC01129642
:101460000D911C9113970115110541F1D801ED91D2
:10147000FC910190F081E02DBE016B5E7F4FC801B1
:101480000995811117C0F80100851185ECCF113045
:1014900009F44EC0133091F48F89882309F445C0B4
:1014A000823081F440E860E183ED9BE00E94C51743
:1014B000882321F08EEF8093E80079C081E2809349
:1014C000EB0075C0813029F440E86BE087EC9BE0CD
:1014D000EDCF833099F70E94FA10DC011296ED905F
:1014E000FC9013978E010F5F1F4F6801E114F10408
:1014F00079F0D701ED91FC910680F781E02DB801DC
:10150000C7010995080F111DF701E084F184EECFA2
:10151000D8011C92F60101900020E9F73197BF0134
:101520006C197D0940E0C601C1CF61EB7BE002C0D0
:1015300065EB7BE06115710509F2FB01449150E018
:1015400080E840CF0FB6F894A8958091600088613C
:1015500080936000109260000FBEA895EE3F2AE0D5
:10156000F20739F08091FE0A9091FF0A91838083FF
:10157000A1CF1092FF0A1092FE0A9CCFEE3F8AE0A4
:10158000F80731F0808191819093FF0A8093FE0AE1
:1015900087E797E7918380839BE088E10FB6F89413
:1015A000A895809360000FBE9093600083CF6C96E7
:1015B0000FB6F894DEBF0FBECDBFDF91CF91FF9184
:1015C000EF91BF91AF919F918F917F916F915F91BB
:1015D0004F913F912F911F910F91FF90EF90DF90CE
:1015E000CF900F900FBE0F901F9018958F929F92E3
:1015F000AF92BF92CF92DF92EF92FF926B017C018C
:101600000E94E5064B015C01C114D104E104F10420
:10161000F1F00E94E506DC01CB0188199909AA09BD
:10162000BB09883E9340A105B10570F321E0C21AC1
:10163000D108E108F10888EE880E83E0981EA11C0D
:10164000B11CC114D104E104F10419F7DDCFFF90FE
:10165000EF90DF90CF90BF90AF909F908F900895C4
:101660008F929F92AF92BF92CF92DF92EF92FF92B2
:101670000F931F93CF93DF935C016B017A018091ED
:101680001001882309F45BC08091B101882309F41B
:1016900056C08091850180FF05C08091E000826086
:1016A0008093E000E70110E00AEF83E0882E9AE3E0
:1016B000992E2097D9F10E94E91081110AC001509A
:1016C00009F43DC061E070E080E090E00E94F60A1D
:1016D000F0CF282F30E0C217D3070CF48C2F4FB770
:1016E000F8948092E9009091E80095FF1DC0282FA2
:1016F00030E0C21BD30BF601982F915020F081915E
:101700008093F100FACFC20ED31E112319F09092EC
:10171000E80009C08091E80085FD06C09092E800CD
:1017200011E0209709F010E04FBFC3CF1111C3CFD4
:101730005D9884E68093AF011E141F0444F081E09D
:1017400090E0F5019383828380E090E001C0C701BF
:10175000DF91CF911F910F91FF90EF90DF90CF908D
:10176000BF90AF909F908F9008951F920F920FB6E9
:101770000F9211242F933F938F939F93AF93BF9317
:101780008091A3019091A401A091A501B091A6011F
:101790003091A20123E0230F2D3720F40196A11DE3
:1017A000B11D05C026E8230F0296A11DB11D20938F
:1017B000A2018093A3019093A401A093A501B093EB
:1017C000A6018091A7019091A801A091A901B091D3
:1017D000AA010196A11DB11D8093A7019093A801B4
:1017E000A093A901B093AA01BF91AF919F918F914E
:1017F0003F912F910F900FBE0F901F9018951F9241
:101800000F920FB60F9211242F933F934F935F9334
:101810006F937F938F939F93AF93BF93EF93FF93B8
:1018200080919E0190919F01A091A001B091A10192
:10183000892B8A2B8B2B81F180919D0181110BC00B
:1018400098B180E4892788B980919C01882319F098
:1018500088B1805888B980919E0190919F01A09194
:10186000A001B091A101181619061A061B06B4F4BE
:1018700080919E0190919F01A091A001B091A10142
:101880000197A109B10980939E0190939F01A093B4
:10189000A001B093A10102C00E942407FF91EF9123
:1018A000BF91AF919F918F917F916F915F914F9178
:1018B0003F912F910F900FBE0F901F9018959C0194
:1018C000E1E7F0E090819D7F908381E080939B0130
:1018D00030939A01209399013093970120939601B8
:1018E0000C942407809103018093910181EC95E091
:1018F0000E945F0C80910301813031F4809193014B
:101900008F5F809393010895823029F48091920132
:101910008F5F8093920108952D9A0895BC0180E015
:1019200090E00C94F60A8FB12CB193B130E0209581
:10193000309520743327A90123E0559547952A95C2
:10194000E1F7292F30E02095309520713327359528
:10195000279535952795242B8095807F822B089598
:101960008EBD00000DB407FEFDCF0895E7E6FBE055
:1019700090E1969FD001A0781124A80F6770E60F20
:10198000F11D9491AE54BE4F442319F08C91982BC5
:1019900003C090958C9198239C9308952F923F9229
:1019A0004F925F926F927F928F929F92AF92BF926F
:1019B000CF92DF92EF92FF920F931F93CF93DF931B
:1019C000CDB7DEB727970FB6F894DEBF0FBECDBFF9
:1019D000FC016A3069F4248D808D918D38E0239F5D
:1019E000800D911D1124918F808F178A168AA6C0B1
:1019F0006D3009F4A3C09F838E83348C238D29839B
:101A0000328D3A83608C718CE688F78880E8E8161E
:101A1000F104C4F0AE81BF815C962C915C97422F9B
:101A200050E056968D919C915797B6E02B9F800D74
:101A3000911D1124EE81FF81978B868B258D2111BD
:101A400067C07CC0F0E46F16710424F7C70125E07D
:101A5000329E800D911D112418161906DCF6432CB8
:101A6000512CC30138E0339E800D911D11241816AE
:101A7000190684F685E0689F800111240959194FE1
:101A800020E0F8012490253009F4212C430158E08E
:101A900020FC02C0398101C03A8131110BC0F981AB
:101AA0008A81F81307C026945150840C951C51115B
:101AB000EFCF25C067018C2D8E198315A0F7540137
:101AC0008A2D88198315B8F490E8C916D10478F4E2
:101AD000A0E4AA16B10458F4432FB501C6012C8323
:101AE0003B835D830E94B60C5D813B812C81BFEFFF
:101AF000AB1ABB0AE5CFEFEFCE1ADE0ADCCF2F5FC1
:101B0000E40CF51C0F5F1F4F263009F0BACF82CFCF
:101B10006AEF64039001659F300D112420583F4FF8
:101B2000281739075CF4AE81BF81ED91FC911197C4
:101B30000190F081E02D6AE0CD01099581E090E00F
:101B400027960FB6F894DEBF0FBECDBFDF91CF91C1
:101B50001F910F91FF90EF90DF90CF90BF90AF90CB
:101B60009F908F907F906F905F904F903F902F90BD
:101B700008958091B2018EBDE3EBF1E081910DB447
:101B800007FEFDCF8EBD85E0E23BF807B9F70DB447
:101B900007FEFDCF0895E8E8F1E01082118212827D
:101BA0001382148215821682178210860895AF92CE
:101BB000BF92CF92DF92EF92FF920F931F93CF933A
:101BC000DF9340E460E070E083E190E00E94190F51
:101BD00040E460E070E084E190E00E94190F40E48E
:101BE00060E070E089E290E00E94190F40E460E05C
:101BF00070E08AE290E00E94190FC0E0D0E042E07D
:101C000063E170E0CE010E94190F2196C034D10526
:101C1000B1F7C0E0D0E042E069E270E0CE010E949E
:101C2000190F2196C034D105B1F788E8C82E81E09C
:101C3000D82E01E010E07601C1E0D0E05701F701B5
:101C40008081813031F44DE855E0BE01C8010E9429
:101C5000720FFFEFEF1AFF0AF5018081823031F435
:101C60004BE655E0BE01C8010E94720F6696C33470
:101C7000D10521F70A5E1F4FF3E0CF0ED11C0334CC
:101C80001105C9F6609101018091020136E1639F5F
:101C9000B001112422E142E1E6E18E9FC00111244E
:101CA000DF91CF911F910F91FF90EF90DF90CF9038
:101CB000BF90AF900C94440F0F931F93CF93DF937B
:101CC000C0E0D0E0FE01E857FE4F90818091030113
:101CD000981308C08181891305C09281981302C0AE
:101CE0000E94720C2396C930D10561F708E811E013
:101CF000C0E0D0E0F80191918F0180910301981329
:101D00000BC0FE01E857FE4F8381891305C0968101
:101D1000981302C00E94720C2196C330D10551F76E
:101D2000909188018091030198130AC080918C01E1
:101D3000891306C090919001981302C00E94720C02
:101D400090918A018091030198130AC080918C01BF
:101D5000891306C090918E01981302C00E94720CE4
:101D600080919101811119C020E030E083E0F901F8
:101D7000E857FE4F40814111482F91819111942FD6
:101D80008281811108C02D5F3F4F2930310579F7DD
:101D90008093910102C0892FF6CFDF91CF911F91DF
:101DA0000F9108959C01240F311D1216130674F52E
:101DB000803891055CF5FC0197FF02C0E0E0F0E09F
:101DC0002138310514F020E830E02E1BAB014770BC
:101DD000552781E001C0880F4A95EAF777FF02C0D6
:101DE000695F7F4F93E0759567959A95E1F77695D2
:101DF000762F662777956795E60FF71FEE54FE4F0F
:101E0000215020F09081982B9193FACF089500975C
:101E100069F0FC0101900020E9F73197AF01481B00
:101E2000590BBC0184EB95E00C947F0680E090E0B8
:101E30000895EF92FF920F931F93CF93DF937C014E
:101E40008B01040F111DEB0177FF10C0C0E0D0E043
:101E50000DC0C217D3078CF480E8E816F10428F40B
:101E600041E0BE01C7010E94B60C219698010134E1
:101E700011057CF320E430E0ECCFDF91CF911F918E
:101E80000F91FF90EF900895EF92FF920F931F93A1
:101E9000CF93DF93EC018B01E42EF22E60347105B9
:101EA00010F40E94D20EB8016F0D711D61507109BE
:101EB0006034710520F44E2DCE010E94D20E4F2DBC
:101EC000B801CE010E94190FCE018E0D911D4F2D2C
:101ED000B8010197DF91CF911F910F91FF90EF9083
:101EE0000C94190F4F925F927F928F929F92AF92B4
:101EF000BF92CF92DF92EF92FF920F931F93CF93F7
:101F0000DF9300D000D0CDB7DEB7DC01411551051D
:101F100009F4C6C0FA01D490319634914D2C512C5D
:101F20005C01A40CB51C1A141B040CF0B9C0803859
:101F300091050CF0B5C0CB01830F911D1816190641
:101F40000CF0AEC0603471050CF0AAC0CB0177FF75
:101F500004C088279927861B970B87707B0177FF22
:101F600003C0F7E0EF0EF11C93E0F594E7949A9527
:101F7000E1F7FE2D77FF07C0882329F0FFEFFE0D64
:101F800098E0981B892FB7FF05C0662777276A1B43
:101F90007B0B02C060E070E000E8A016B10424F002
:101FA00090E8E92EEA1A01C0ED2CE61AAF2E0F2EAA
:101FB000000CBB08FF3F1CF4CA2CC09401C0C12C0C
:101FC00091E0232F277009F490E0369536953695E9
:101FD000930FA90EB11C19E0A116B10414F098E0FA
:101FE0009F1BFC2CFF0E9D010F2D10E80103200DFF
:101FF000311D1124260F371F4E5F5F4FCD9C600DA2
:10200000711D1124460F571F61E070E0082E02C0B9
:10201000660F771F0A94E2F7EFEFE69FD001E79F84
:10202000B00D1124A095B095BC83AB837C809F0F2D
:10203000F916B1F1F901EE54FE4F6F01A12CB12C4C
:10204000AE1440F5FA01EA0DFB1DE491E69F400154
:10205000E79F900C11249A828982F7FC07C0F60151
:102060001081E12FEA238E2AF6018082882359F01D
:10207000F6E0FF1544F0F601E058FF4F90809720FE
:102080008A80982890820FEFA01AB00A1FEFC11A19
:10209000D10AD6CFF394440D551D20583F4FC8CFD9
:1020A0000F900F900F900F90DF91CF911F910F9194
:1020B000FF90EF90DF90CF90BF90AF909F908F9068
:1020C0007F905F904F90089580E0E2EBF1E0811106
:1020D0008FEF002481938193819381930394D1F7AF
:1020E00008952091BE05282329F49091BD059823D9
:1020F00081E009F480E008950C94070F8F929F927D
:10210000AF92BF920F931F93CF93DF93CDB7DEB7FC
:10211000A1970FB6F894DEBF0FBECDBF19A2423013
:1021200008F44AE08E010F5D1F4F842E912CA12CE4
:10213000B12CA50194010E942C19E62FB901CA0106
:1021400001501109EA3014F4E05D01C0E95CD801E6
:10215000EC93232B242B252B61F7C8010E94070F3A
:10216000A1960FB6F894DEBF0FBECDBFDF91CF9121
:102170001F910F91BF90AF909F908F900895FC0199
:102180008091B101811103C08FEF9FEF08959FB738
:10219000F89482E08093E9002091F20030E012167A
:1021A000130614F421E030E02115310559F0289888
:1021B00084E68093B0018091F10080838091F200E9
:1021C000882319F09FBFC90108958BE68093E8002A
:1021D000F9CF2FB7F89483E08093E9009091E8005D
:1021E000892F807295FF04C09091F20080E4891BD2
:1021F0002FBF08958091D60581110DC082E0809394
:10220000D20584E08093D3051092D5051092D405B1
:1022100081E08093D60582ED95E00895789484B5A9
:10222000826084BD84B5816084BD85B5826085BDD2
:1022300085B5816085BD80916E00816080936E0060
:102240001092810080918100826080938100809152
:102250008100816080938100809180008160809303
:102260008000809191008260809391008091910024
:1022700081608093910080919000816080939000B4
:102280008091C10084608093C1008091C100826010
:102290008093C1008091C10081608093C1008091D2
:1022A000C30081608093C3008091C00082608093EE
:1022B000C0008091C20081608093C20080917A004A
:1022C000846080937A0080917A00826080937A00A3
:1022D00080917A00816080937A0080917A00806892
:1022E00080937A001092B1011092860110928501BC
:1022F0008091D70081608093D70080EA8093D800D6
:1023000089B5806189BD89B5826089BD09B400FE47
:10231000FDCF61E070E080E090E00E94F60A8091DD
:10232000D8008F7C80618093D8008091E000807F0E
:102330008093E0008091E1008E7E8093E1008DE04B
:102340008093E200559A209AEEEFFFE785919491F1
:102350008B3F9C4D19F481E08093840181EC809344
:102360007C0085B1806F85B9249884B1866E84B96C
:102370005E9A5F988AB1806D8AB9769A6E9881B3B9
:10238000806F81BB899880B38D7080BB80E58CBDE8
:1023900081E08DBD85E090E00E948E0C5F9A85E023
:1023A00090E00E948E0C5E985C98CCE5D1E01C2FEA
:1023B000135FFE0184910E94B00C21961C13F9CF8B
:1023C0005C9A81E88093640081E080936500C0E0BE
:1023D000D4E080E00E94B00C2197D9F70E94930CC2
:1023E00087FF27C05C9885EA0E94B00C5C9A2E9803
:1023F0002F982D988091640080628093640083B749
:10240000817F83BF83B7816083BF889583B78E7FC9
:1024100083BFF5CF2D980E94930C8478843871F097
:102420000E94930C8471843131F188EC90E00E9419
:102430008E0C0E94930C82FDEDCF3AC00E948C0C52
:1024400088EC90E00E948E0C2F9882E090E00E9431
:10245000E4188F3F29F06FEF82E090E00E94EC18C3
:1024600084EF91E00E948E0C2F9A0E94930C847846
:102470008438D9F3D5CF0E948C0C88EC90E00E9470
:102480008E0C2E9882E090E00E94E418882329F0B8
:1024900060E082E090E00E94EC1884EF91E00E94FE
:1024A0008E0C2E9A0E94930C84718431D9F3BDCF87
:1024B0000E948C0C82E090E00E94E418882331F0A6
:1024C0003E9A3F9A81E08093870104C01092870171
:1024D0003E983F982E98CEEEDFEF08E010E00E9485
:1024E000930C86FF04C02E9A2F9A2D9A8DC0CC3F54
:1024F0002FEFD20719F42E9A2F9805C0C831D105B5
:1025000011F42F9A2D980E946410C03F4FEFD4070A
:1025100094F488EB95E00E94B90D8BE190E00E9465
:102520008E0CC03F5FEFD50709F059C08AEF90E0ED
:102530000E948E0C54C09E01D7FF04C0222733276F
:102540002C1B3D0B27703327CE01D7FD079653E098
:10255000959587955A95E1F7D7FF05C00197B80182
:10256000621B730B9B017C01F694FE2CEE24F79406
:10257000E79440E050E04801821A930AF701E058DE
:10258000FF4F5F018F3FFFEF9F0744F40196485ACA
:102590005F4F7501403B510589F7BBCFD701AA5B5F
:1025A000BD4F60E070E08F3FEFEF9E0709F40AC473
:1025B000FB01E40FF51FE455FF4FE4916D01CA18CC
:1025C000DB08CE0CDF1CF0E02F01022E01C0440C12
:1025D0000A94EAF7F601708047284082F3C32196F7
:1025E000C931D10509F07BCF8CEB92E00E948E0CB3
:1025F0000E948C0CE091B805F091B9050190F08132
:10260000E02D88EB95E0099582E390E00E948E0C26
:102610000E94930C8111F8CFBCE02B2E312CC3E02B
:10262000CC2ED12CE12CF12C00E510E0C1E0809102
:102630000401843021F50E9464101092CD0510929F
:10264000CC051092CB051092CA058091BD058093F0
:10265000BE050E94930C8093BD0549E651E060E001
:1026600070E080E090E00E94720F88E00E9471109C
:102670008111C093040188EB95E00E94B90D80910F
:102680000401813009F071C080930301109293011D
:10269000109292010E94CB0D0E9464101092CD0501
:1026A0001092CC051092CB051092CA058091BD0501
:1026B0008093BE050E94930C8093BD0540E150E0DD
:1026C0005093CB054093CA055093CD054093CC055C
:1026D00082E491E00E947C1060E170E07093CB0591
:1026E0006093CA0580E290E09093CD058093CC057D
:1026F0008EE491E00E947C10D0910001D13029F449
:102700002DE044E66DE070E006C0D23041F42DE0EB
:1027100044E66DE170E08DE090E00E94440F80E8B7
:102720000E947110882319F0D23009F466C380E149
:102730000E947110882329F080910001813009F4F2
:102740005FC388E00E947110882359F080910001D6
:10275000813011F482E003C0823019F483E0809369
:10276000040188EB95E00E94B90D8091040182304C
:1027700009F0ECC00E9464101092CD051092CC05B7
:102780001092CB051092CA058091BD058093BE05BD
:102790000E94930C8093BD050E94D70D8091030188
:1027A0001093CB050093CA051092CD051092CC056D
:1027B000813019F48CE591E002C085E691E00E9439
:1027C0007C10E6E5F0E0F093CB05E093CA0548E322
:1027D00050E05093CD054093CC056091930170E09B
:1027E00080E090E04AE00E947E108EE691E00E9438
:1027F0007C106091920170E080E090E04AE00E94DD
:102800007E1080919101811161C080E20E9471105F
:10281000882321F0809102018111F6C280E40E9498
:102820007110882329F080910201823008F4F0C2EF
:1028300080E80E947110882321F0809101018111AC
:10284000EBC280E10E947110882329F08091010180
:10285000823008F4E5C284E00E9471108111C093B7
:10286000040188E00E947110882381F180910201A7
:1028700090E0409101019C01220F331F820F931FB2
:10288000840F911DFC01E857FE4F8081811118C013
:102890008091030180838FEA95E00E945F0C0E9483
:1028A0005C0E80919101811111C0809103018130F2
:1028B00021F482E08093030109C0C093030106C0A4
:1028C0002E9884E690E00E948E0C2E9A80919101C1
:1028D0008823C1F181501093CB050093CA05309233
:1028E000CD052092CC058230B0F482E791E00E94C1
:1028F0007C1080919101813019F44DE855E004C0BD
:10290000823069F44BE655E06EE170E08DE590E0D1
:102910000E94720F04C08BE791E00E947C1084E05B
:102920000E947110882371F0109291010E94CB0DCA
:1029300080910301813021F482E08093030102C081
:10294000C093030188EB95E00E94B90D80910401CA
:10295000833009F02FC20E9464101092CD051092AE
:10296000CC051092CB051092CA058091BD058093CD
:10297000BE050E94930C8093BD050E94D70D8091E7
:1029800003011093CB050093CA051092CD05109258
:10299000CC05813019F48CE591E002C083E591E02B
:1029A0000E947C1066E570E07093CB056093CA05C9
:1029B00088E390E09093CD058093CC0560919301DE
:1029C00070E080E090E04AE00E947E108EE691E0A8
:1029D0000E947C106091920170E080E090E04AE0FB
:1029E0000E947E10809191018111A4C180E20E9419
:1029F0007110882321F080910201811115C280E4B9
:102A00000E947110882329F080910201823008F41D
:102A10000FC280E80E947110882321F0809101018B
:102A200081110AC280E10E947110882329F08091EF
:102A30000101823008F404C284E00E947110811107
:102A4000C093040188E00E947110882311F18091E5
:102A5000020190E0409101019C01220F331F820F7F
:102A6000931F840F911DFC01E857FE4F8081811157
:102A70000AC08091030180838FEA95E00E945F0C79
:102A8000BB24B39407C02E9884E690E00E948E0C7D
:102A90002E9AB12C80910301823009F038C1EAE806
:102AA0006E2EE1E07E2ED30140E0D0E090E080E0A9
:102AB0009D0122503109F9012081223069F49D01E4
:102AC00021503109F9012081223009F0BDC12C913A
:102AD000222309F43BC20AC0211108C09D012150E4
:102AE0003109F9012081223009F4B8C113964F5FF2
:102AF0004330F1F678E8872E71E0972EAEE8B1E02A
:102B0000AD019401A12CF90161919F01623071F432
:102B1000BA0163507109FB016081623009F0A6C1FE
:102B2000FA016081662309F415C20AC0611108C068
:102B3000BA0163507109FB016081623009F4A1C1DF
:102B40004F5F5F4FA394F3E0AF12DDCF60918E0132
:102B5000623009F09FC120918C01223031F4209124
:102B60008A01222309F4FAC109C0211107C020916A
:102B70008A01223019F4D1E091E081E0509188017E
:102B8000523009F097C120918C01223031F420910C
:102B90009001222309F4F6C107C0211105C020913C
:102BA0009001223009F47BC0D13009F47AC070E082
:102BB00040E0930122503109F9012081213071F464
:102BC000930121503109F9012081213009F097C189
:102BD000F3012081222309F4C5C10AC0211108C0D4
:102BE000930121503109F9012081213009F47EC17E
:102BF000F3E06F0E711C7F5F7330D9F620E0F401B3
:102C000031914F01313059F4FD013397308131302A
:102C100009F088C13C91332309F4A8C108C03111DF
:102C200006C0FD0133973081313009F473C111962C
:102C30002F5F233021F7613001F520918C01213085
:102C400031F420918A01222309F494C109C0211191
:102C500007C020918A01213019F441E091E081E020
:102C6000513009F034C120918C01213079F4209148
:102C70009001222309F486C10FC06111F1CF209188
:102C80008C01213009F458C1513031F4211104C0B4
:102C900020919001213019F0413081F402C091E07F
:102CA00081E0282F30E0A901440F551F240F351F64
:102CB000290F311DF901E857FE4F26C0B1102AC077
:102CC0000E94D6184B015C010E94D6182B013C01D2
:102CD000C501B401A70196010E94FA18A62EB12CD5
:102CE000C301B201A70196010E94FA18C501880F1D
:102CF000991FA80EB91EA501460F511DFA01E857EC
:102D0000FE4F80818111DCCF82E0808303C051E0DF
:102D1000B51210C00E945C0E8091910181110AC011
:102D200080910301813021F482E08093030102C08D
:102D3000C0930301809191018823C1F181501093C8
:102D4000CB050093CA053092CD052092CC05823088
:102D5000B0F482E791E00E947C1080919101813073
:102D600019F44DE855E004C0823069F44BE655E0B3
:102D70006EE170E08DE590E00E94720F04C08BE779
:102D800091E00E947C1084E00E947110882371F011
:102D9000109291010E94CB0D80910301813021F4AA
:102DA00082E08093030102C0C093030188EB95E0A9
:102DB0000E94B90D60E070E0672B09F438CC0E94E6
:102DC000000034CC2115310581F0FB01E40FF51F23
:102DD000E455FF4FE491F0E0082C02C0F595E7952B
:102DE0000A94E2F7DC90ED29EC936F5F7F4F119628
:102DF0006835710509F0D7CBC9CBC093000197CCDA
:102E000082E0809300019DCC81508093020106CD29
:102E10008F5F809302010CCD81508093010111CD11
:102E20008F5F8093010117CD815080930201E7CD20
:102E30008F5F80930201EDCD815080930101F2CD2F
:102E40008F5F80930101F8CD211150CE2C9122305B
:102E500009F04CCE842FD1E091E048CE2C91223065
:102E600009F044CE842FD1E090E040CE611168CECD
:102E7000FA016081623009F063CE9A2DD1E081E0E1
:102E80005FCEFA016081623009F05ACE9A2DD1E00E
:102E900080E056CE611172CE20918C01223009F073
:102EA0006DCE20918A01223009F068CED1E090E009
:102EB00082E064CE511178CE20918C01223009F04D
:102EC00073CE20919001223009F06ECE0CC05111CA
:102ED000E3CE20918C01213009F0DECE20919001CB
:102EE000213009F0D9CE90E080E0DBCEF3012081E3
:102EF000213009F07DCE872F41E090E079CE21117D
:102F000077CEF3012081213009F072CE872F41E086
:102F100091E06ECE3C91313009F089CE922F41E0A4
:102F200080E085CE311183CE3C91313009F07FCEE7
:102F3000922F41E081E07BCE20918A01213019F46B
:102F400041E090E082E05130C9F491CE842FD1E08D
:102F500092E0CCCD9A2DD1E082E0F2CDD1E092E0AA
:102F600080E00CCE872F41E092E042CE922F41E0EC
:102F700082E05DCE41E092E080E072CE552309F41C
:102F8000ADCF8ACE92E082E08CCECF92DF92EF92EC
:102F9000FF920F931F93CF93DF931F92CDB7DEB7AE
:102FA000182F062FE42E862F880F8E5F99830E949C
:102FB0001D0683E00E941D06F12EC12E9981D92E97
:102FC0008C2D8F19801798F4F601E7FE02C08491CA
:102FD00001C080810E941D06182F80E00E941D06FE
:102FE0008123FFEFCF1ADF0A8111EACF01C081E010
:102FF0000F90DF91CF911F910F91FF90EF90DF9095
:10300000CF9008950F931F93CF93DF93EC0181E04E
:1030100090E00E94E41880FF2EC08AE090E00E94B9
:10302000E4189FEF980F9E3F30F522E330E03F8B8E
:103030002E8B28E330E0398F288F0BE010E0E881F9
:10304000F9810190F081E02D682FCE010995C8012A
:103050000E94E4180F5F1F4F0131110581F7CE0167
:1030600004960E94B90D88EE93E0DF91CF911F91F5
:103070000F910C948E0CDF91CF911F910F910895B9
:1030800004970C940218EEEDF5E01382128288EE9C
:1030900093E0A0E0B0E084839583A683B78380E2C9
:1030A00091E0918380838FEF9FEF95878487E4EB96
:1030B000F5E0138212821186128620E12387908721
:1030C0008783108A118A128A138A148A82E391E014
:1030D0009183808380E491E095838483178A168AA4
:1030E000118E108E81E0828F138E848F158E82ED6B
:1030F00097E09093B3058093B20580E090E89093B9
:103100003B0680933A0646983E9A47983F9A089520
:103110008F929F92AF92BF92CF92DF92EF92FF92E7
:10312000CF93DF93EC01688179818A819B8161155E
:1031300071058105910521F464E279ED8BE597E055
:103140002DE133EF41E050E00E94FA1849015A01A5
:103150009B01AC01A7EAB1E40E9419196B017C0143
:10316000ACEEB4EFA50194010E942719DC01CB015C
:103170008C0D9D1DAE1DBF1DB7FF03C00197A1099A
:10318000B04888839983AA83BB83BC01CD019F7714
:10319000DF91CF91FF90EF90DF90CF90BF90AF90F5
:1031A0009F908F9008950E948818089581E191E082
:1031B0000E94881808956093110170931201809302
:1031C0001301909314010895F999FECF92BD81BD2A
:1031D000F89A992780B50895262FF999FECF1FBA3E
:1031E00092BD81BD20BD0FB6F894FA9AF99A0FBE30
:1031F00001960895052E97FB1EF400940E94111964
:1032000057FD07D00E942C1907FC03D04EF40C94F4
:10321000111950954095309521953F4F4F4F5F4F75
:10322000089590958095709561957F4F8F4F9F4F32
:1032300008950E944E19A59F900DB49F900DA49FD4
:10324000800D911D11240895B7FF0C9419190E9447
:103250001919821B930B0895A1E21A2EAA1BBB1BFE
:10326000FD010DC0AA1FBB1FEE1FFF1FA217B30752
:10327000E407F50720F0A21BB30BE40BF50B661F68
:10328000771F881F991F1A9469F76095709580952C
:1032900090959B01AC01BD01CF010895A29FB001A3
:1032A000B39FC001A39F700D811D1124911DB29F7A
:1032B000700D811D1124911D0895EE0FFF1F0590C3
:1032C000F491E02D099481E090E0F8940C94681951
:0432D000F894FFCFA0
:1032D4000101010104FFFFFFFF00E1000000000005
:1032E400000100000000C180810000000000000017
:1032F400AA06300B0E08C006CB06120830080000E0
:103304000000CE0C7F06D707D6070218FCFF00008A
:10331400401854776F20506C617965727300506C5B
:10332400617920436F6D707574657200506C6179BA
:103334006572203100506C61796572203200202D55
:10334400200057696E6E65722021002044726177F7
:043354002021000034
:00000001FF
